:020000040000FA
:100000000C945E000C9486000C9486000C94860080
:100010000C9486000C9486000C9486000C94860048
:100020000C9486000C9486000C9486000C94860038
:100030000C9486000C9486000C9486000C94860028
:100040000C9440020C9486000C940E020C94E8016F
:100050000C9486000C9486000C9486000C94860008
:100060000C9486000C9486000000000024002700F9
:100070002A0000000000250028002B0004040404CE
:100080000404040402020202020203030303030342
:10009000010204081020408001020408102001021F
:1000A00004081020000000080002010000030407FB
:1000B00000000000000000008A02540411241FBE4A
:1000C000CFEFD8E0DEBFCDBF21E0AAE1B1E001C0B3
:1000D0001D92AA3CB207E1F711E0A0E0B1E0E2E333
:1000E000FDE002C005900D92AA31B107D9F710E0EA
:1000F000CDE5D0E004C02197FE010E949404CC35E8
:10010000D107C9F70E94FE020C948C060C940000E3
:10011000AF92BF92CF92DF92EF92FF920F931F9315
:10012000CF93DF936C017B018B01040F151FEB0153
:100130005E01AE18BF08C017D10759F06991D6010A
:10014000ED91FC910190F081E02DC6010995892B7C
:1001500079F7C501DF91CF911F910F91FF90EF903B
:10016000DF90CF90BF90AF900895FC01538D448DE8
:10017000252F30E0842F90E0821B930B541710F052
:10018000CF96089501970895FC01918D828D98175F
:1001900061F0A28DAE0FBF2FB11D5D968C91928D37
:1001A0009F5F9F73928F90E008958FEF9FEF089568
:1001B000FC01918D828D981731F0828DE80FF11D31
:1001C000858D90E008958FEF9FEF0895FC01918D4C
:1001D000228D892F90E0805C9F4F821B91098F7345
:1001E0009927089583E291E00E94E60021E0892B9F
:1001F00009F420E0822F089580E090E0892B29F017
:100200000E94F20081110C9400000895FC01A48D5D
:10021000A80FB92FB11DA35ABF4F2C91848D90E028
:1002200001968F739927848FA689B7892C93A0890B
:10023000B1898C91837080648C93938D848D981395
:1002400006C00288F389E02D80818F7D8083089528
:10025000EF92FF920F931F93CF93DF93EC0181E016
:10026000888F9B8D8C8D98131AC0E889F9898081BD
:1002700085FF15C09FB7F894EE89FF896083E889F0
:10028000F98980818370806480839FBF81E090E0E2
:10029000DF91CF911F910F91FF90EF900895F62E6F
:1002A0000B8D10E00F5F1F4F0F731127E02E8C8D09
:1002B0008E110CC00FB607FCFACFE889F98980814E
:1002C00085FFF5CFCE010E940601F1CFEB8DEC0F3B
:1002D000FD2FF11DE35AFF4FF0829FB7F8940B8F6B
:1002E000EA89FB8980818062CFCFCF93DF93EC01D5
:1002F000888D8823B9F0AA89BB89E889F9898C910E
:1003000085FD03C0808186FD0DC00FB607FCF7CFC9
:100310008C9185FFF2CF808185FFEDCFCE010E94C9
:100320000601E9CFDF91CF9108953FB7F89480910E
:100330001F0190912001A0912101B091220126B5C9
:10034000A89B05C02F3F19F00196A11DB11D3FBF0D
:10035000BA2FA92F982F8827BC01CD01620F711DDC
:10036000811D911D42E0660F771F881F991F4A95D6
:10037000D1F70895CF93DF93EC018091C001909164
:10038000C101009759F02091C2013091C3012C178F
:100390003D0720F081E0DF91CF910895BE016F5FAE
:1003A0007F4F0E94BF05009789F09093C101809311
:1003B000C001D093C301C093C2012091C401309108
:1003C000C501232B39F7FC011082E4CF80E0E3CF95
:1003D0001F920F920FB60F9211242F933F934F93BA
:1003E0005F936F937F938F939F93AF93BF93EF939D
:1003F000FF9383E291E00E940601FF91EF91BF918C
:10040000AF919F918F917F916F915F914F913F91AC
:100410002F910F900FBE0F901F9018951F920F9263
:100420000FB60F9211242F938F939F93EF93FF9307
:10043000E0913301F09134018081E0913901F09134
:100440003A0182FD1BC0908180913C018F5F8F73C8
:1004500020913D01821741F0E0913C01F0E0ED5D1B
:10046000FE4F958F80933C01FF91EF919F918F916B
:100470002F910F900FBE0F901F9018958081F4CF91
:100480001F920F920FB60F9211242F933F938F93C9
:100490009F93AF93BF9380911B0190911C01A091FA
:1004A0001D01B0911E0130911A0123E0230F2D3759
:1004B00058F50196A11DB11D20931A0180931B01CF
:1004C00090931C01A0931D01B0931E0180911F0108
:1004D00090912001A0912101B09122010196A11DCE
:1004E000B11D80931F0190932001A0932101B0932F
:1004F0002201BF91AF919F918F913F912F910F90CA
:100500000FBE0F901F90189526E8230F0296A11D8D
:10051000B11DD2CF109226011092250188EE93E0F2
:10052000A0E0B0E08093270190932801A0932901D7
:10053000B0932A018BE091E09093240180932301F2
:1005400085EC90E09093300180932F0184EC90E053
:10055000909332018093310180EC90E090933401CC
:100560008093330181EC90E09093360180933501C4
:1005700082EC90E0909338018093370186EC90E014
:1005800090933A018093390110923C0110923D0101
:1005900010923E0110923F011092C1011092C001D1
:1005A0001092C3011092C2011092C5011092C401B1
:1005B00090E080E00E94BA012091C0013091C10119
:1005C000811113C02115310519F0C9010E943605AA
:1005D0001092C1011092C0011092C5011092C40185
:1005E0001092C3011092C20108951092C501109299
:1005F000C40169E171E0C9010C948506CF93DF93D2
:1006000000D0CDB7DEB7789484B5826084BD84B560
:10061000816084BD85B5826085BD85B5816085BDFD
:1006200080916E00816080936E00109281008091B5
:10063000810082608093810080918100816080933D
:100640008100809180008160809380008091B10062
:1006500084608093B1008091B00081608093B0008D
:1006600080917A00846080937A0080917A00826021
:1006700080937A0080917A00816080937A008091E3
:100680007A00806880937A001092C1000DE910E032
:10069000F801249159E8E52E50E0F52EF7018491F8
:1006A000882399F090E0880F991FFC01E859FF4FCB
:1006B000A591B491FC01EE58FF4F859194918FB7AD
:1006C000F8949C91292B2C938FBFE0913301F091EA
:1006D000340182E08083E0912F01F091300110829B
:1006E000E0913101F09132018FEC808310923B0157
:1006F000E0913701F091380186E08083E091350187
:10070000F0913601808180618083E0913501F09124
:100710003601808188608083E0913501F091360157
:10072000808180688083E0913501F091360180817D
:100730008F7D808321EB222E20E0322E30E0C32EED
:1007400030E0D32E83E291E00E94E60018161906ED
:100750000CF09EC083E291E00E94C40089831A825B
:10076000A090C401B090C501FFEFAF1ABF0AC50148
:100770000E94BA01882399F02091C0013091C101F3
:100780008091C4019091C501BE016F5F7F4F820FC0
:10079000931F0E948506B092C501A092C401F10189
:1007A0009491F8018491F7013491332301F1209160
:1007B0000001992359F0933009F450C008F043C068
:1007C000913009F451C0923009F452C0E32FF0E0A7
:1007D000EE0FFF1FEE58FF4FA591B4919FB7F8940D
:1007E000211153C02C91809582238C939FBF0E942E
:1007F00095012B013C0188EE882E83E0982EA12CD8
:10080000B12C0E9495016419750986099709683E03
:10081000734081059105A8F3F1E08F1A9108A108B2
:10082000B10828EE420E23E0521E611C711C811497
:100830009104A104B10429F780910001F1E08F2710
:10084000809300017FCF9730B1F09830D1F0943091
:1008500009F0BCCF909180009F7D03C090918000F3
:100860009F7790938000B2CF94B59F7794BDAECF21
:1008700094B59F7DFBCF9091B0009F779093B0008F
:10088000A5CF9091B0009F7DF9CF2C91822BADCF59
:10089000C114D10409F456CF0E94F200882309F450
:1008A00051CF0E9400004ECF8091C0019091C101B4
:1008B000009711F00C94360508952F923F924F92B5
:1008C0005F926F927F928F929F92AF92BF92CF92E0
:1008D000DF92EF92FF920F931F93CF93DF93CDB7E9
:1008E000DEB7CA1BDB0B0FB6F894DEBF0FBECDBF61
:1008F00009942A88398848885F846E847D848C8432
:100900009B84AA84B984C884DF80EE80FD800C813A
:100910001B81AA81B981CE0FD11D0FB6F894DEBF1D
:100920000FBECDBFED010895EE0FFF1F0590F491AE
:10093000E02D09940F931F93CF93DF93823091059D
:1009400010F482E090E0E091C801F091C90130E03C
:1009500020E0B0E0A0E0309799F42115310509F4CA
:100960004AC0281B390B24303105D8F58A819B8178
:100970006115710589F1FB0193838283FE0111C02A
:10098000408151810281138148175907E0F04817CF
:10099000590799F4109761F012960C9312971396D9
:1009A0001C933296CF01DF91CF911F910F91089543
:1009B0000093C8011093C901F4CF2115310551F0FE
:1009C0004217530738F0A901DB019A01BD01DF018D
:1009D000F801C1CFEF01F9CF9093C9018093C8010D
:1009E000CDCFFE01E20FF31F819391932250310985
:1009F00039832883D7CF2091C6013091C701232B9B
:100A000041F420910301309104013093C7012093F8
:100A1000C60120910101309102012115310541F4F7
:100A20002DB73EB74091050150910601241B350BAF
:100A3000E091C601F091C701E217F307A0F42E1B65
:100A40003F0B2817390778F0AC014E5F5F4F241732
:100A5000350748F04E0F5F1F5093C7014093C60102
:100A6000819391939FCFF0E0E0E09CCFCF93DF9311
:100A70000097E9F0FC01329713821282A091C8011D
:100A8000B091C901ED0130E020E01097A1F4208180
:100A90003181820F931F2091C6013091C701281721
:100AA000390709F061C0F093C701E093C601DF91F7
:100AB000CF910895EA01CE17DF07E8F54A815B81FF
:100AC0009E0141155105B1F7E901FB83EA83499184
:100AD0005991C40FD51FEC17FD0761F480819181F6
:100AE0000296840F951FE9019983888382819381FF
:100AF0009B838A83F0E0E0E012968D919C9113979E
:100B00000097B9F52D913C911197CD010296820F76
:100B1000931F2091C6013091C7012817390739F674
:100B2000309751F51092C9011092C801B093C701D6
:100B3000A093C601BCCFD383C28340815181840F6F
:100B4000951FC817D90761F44E5F5F4F888199815F
:100B5000480F591F518340838A819B8193838283ED
:100B60002115310509F0B0CFF093C901E093C80118
:100B70009ECFFD01DC01C0CF13821282D7CFB0E03F
:100B8000A0E0E5ECF5E00C945F048C01009751F4D3
:100B9000CB010E949A048C01C801CDB7DEB7E0E119
:100BA0000C947B04FC01E60FF71F9C0122503109D5
:100BB000E217F30708F49DC0D901CD91DC9111979C
:100BC000C617D70798F0C530D10530F3CE0104978A
:100BD0008617970708F3C61BD70B2297C193D193AB
:100BE0006D937C93CF010E943605D6CF5B01AC1A82
:100BF000BD0A4C018C0E9D1EA091C801B091C90187
:100C0000512C412CF12CE12C109731F58091C6012B
:100C10009091C7018815990509F05CC046165706E2
:100C200008F058C08091010190910201009741F4B1
:100C30008DB79EB74091050150910601841B950B1D
:100C4000E817F90708F055C0F093C701E093C60113
:100C5000F90171836083A0CF8D919C9111971296B9
:100C60006C90129713967C901397A815B90559F5B7
:100C70006C0142E0C40ED11CCA14DB0420F1AC01AB
:100C80004A195B09DA011296159780F06282738225
:100C900051834083D9016D937C93E114F10471F089
:100CA000D7011396FC93EE93129776CF22968C0F72
:100CB0009D1FF90191838083F301EFCFF093C90168
:100CC000E093C80169CF4816590608F42C017D014C
:100CD000D3019ACFCB010E949A047C01009749F07E
:100CE000AE01B8010E947C06C8010E94360587014A
:100CF00053CF10E000E050CFFB01DC0102C00190B7
:100D00000D9241505040D8F70895FB01DC0101904D
:100D10000D920020E1F7089510E0CDE5D0E004C089
:100D2000FE010E9494042196CE35D107C9F7F894AC
:100D3000FFCF010000CA01800000000000280188E8
:0C0D400000B5007501E600C400D80000FA
:107E0000112484B714BE81FFF0D085E080938100F7
:107E100082E08093C00088E18093C10086E0809377
:107E2000C20080E18093C4008EE0C9D0259A86E02C
:107E300020E33CEF91E0309385002093840096BBD3
:107E4000B09BFECF1D9AA8958150A9F7CC24DD24C4
:107E500088248394B5E0AB2EA1E19A2EF3E0BF2EE7
:107E6000A2D0813461F49FD0082FAFD0023811F036
:107E7000013811F484E001C083E08DD089C08234E0
:107E800011F484E103C0853419F485E0A6D080C0E4
:107E9000853579F488D0E82EFF2485D0082F10E0AE
:107EA000102F00270E291F29000F111F8ED06801E7
:107EB0006FC0863521F484E090D080E0DECF843638
:107EC00009F040C070D06FD0082F6DD080E0C81688
:107ED00080E7D80618F4F601B7BEE895C0E0D1E017
:107EE00062D089930C17E1F7F0E0CF16F0E7DF06D8
:107EF00018F0F601B7BEE89568D007B600FCFDCFD4
:107F0000A601A0E0B1E02C9130E011968C91119780
:107F100090E0982F8827822B932B1296FA010C0160
:107F200087BEE89511244E5F5F4FF1E0A038BF0790
:107F300051F7F601A7BEE89507B600FCFDCF97BE46
:107F4000E89526C08437B1F42ED02DD0F82E2BD052
:107F50003CD0F601EF2C8F010F5F1F4F84911BD097
:107F6000EA94F801C1F70894C11CD11CFA94CF0C13
:107F7000D11C0EC0853739F428D08EE10CD085E9AC
:107F80000AD08FE07ACF813511F488E018D01DD067
:107F900080E101D065CF982F8091C00085FFFCCF94
:107FA0009093C60008958091C00087FFFCCF809118
:107FB000C00084FD01C0A8958091C6000895E0E648
:107FC000F0E098E1908380830895EDDF803219F02E
:107FD00088E0F5DFFFCF84E1DECF1F93182FE3DFCA
:107FE0001150E9F7F2DF1F91089580E0E8DFEE27F6
:047FF000FF270994CA
:027FFE00040479
:00000001FF
